{
  "transactions": [
    {
      "hash": "0x77e97d786e38e1665c5cce44a8c3b24daffe953069d4497042f36ce1e4c182a3",
      "transactionType": "CALL",
      "contractName": null,
      "contractAddress": "0xe03a1074c86cfedd5c142c4f04f1a1536e203543",
      "function": "initialize((address,address,uint24,int24,address),uint160)",
      "arguments": [
        "(0x0000000000000000000000000000000000000000, 0x1c7D4B196Cb0C7B01d743Fbc6116a902379C7238, 3000, 60, 0x0A3b821941789AC5Ff334AB6C374bb23C98540c0)",
        "79228162514264337593543950336"
      ],
      "transaction": {
        "from": "0x5eee431889af5f6e7b05cb6452e87c519db14ce5",
        "to": "0xe03a1074c86cfedd5c142c4f04f1a1536e203543",
        "gas": "0x115d5",
        "value": "0x0",
        "input": "0x6276cbbe00000000000000000000000000000000000000000000000000000000000000000000000000000000000000001c7d4b196cb0c7b01d743fbc6116a902379c72380000000000000000000000000000000000000000000000000000000000000bb8000000000000000000000000000000000000000000000000000000000000003c0000000000000000000000000a3b821941789ac5ff334ab6c374bb23c98540c00000000000000000000000000000000000000001000000000000000000000000",
        "nonce": "0x1",
        "chainId": "0xaa36a7"
      },
      "additionalContracts": [],
      "isFixedGasLimit": false
    }
  ],
  "receipts": [
    {
      "status": "0x1",
      "cumulativeGasUsed": "0x7d9512",
      "logs": [
        {
          "address": "0xe03a1074c86cfedd5c142c4f04f1a1536e203543",
          "topics": [
            "0xdd466e674ea557f56295e2d0218a125ea4b4f0f6f3307b95f85e6110838d6438",
            "0x825ea185f9e0f7b8902b4298b2b8f600e95afcedb8e81b1da6cc5025103763e5",
            "0x0000000000000000000000000000000000000000000000000000000000000000",
            "0x0000000000000000000000001c7d4b196cb0c7b01d743fbc6116a902379c7238"
          ],
          "data": "0x0000000000000000000000000000000000000000000000000000000000000bb8000000000000000000000000000000000000000000000000000000000000003c0000000000000000000000000a3b821941789ac5ff334ab6c374bb23c98540c000000000000000000000000000000000000000010000000000000000000000000000000000000000000000000000000000000000000000000000000000000000",
          "blockHash": "0x8ff13ac3adb05467b35b617d0a10e85352137249483700a1da7525bf78d2e81d",
          "blockNumber": "0x9bbc14",
          "blockTimestamp": "0x698662e0",
          "transactionHash": "0x77e97d786e38e1665c5cce44a8c3b24daffe953069d4497042f36ce1e4c182a3",
          "transactionIndex": "0x4c",
          "logIndex": "0x9a",
          "removed": false
        }
      ],
      "logsBloom": "0x00000000000000000000000000000000000000000000000000000000000000000000000000000000000000000000000000000100000004000000000000000000100000000000000000000000000000002000000000000000000000000000000000000000020000000000000000000800000000000000100000000000000000000000000000000008000000000000000000000001000000000000000000200000000000000000000000000000000000000008008000000000000000000000000000000000000000000000000000000000000000000000000000000000000020001000000000000000000000000000000000000000000000000000040000000000",
      "type": "0x2",
      "transactionHash": "0x77e97d786e38e1665c5cce44a8c3b24daffe953069d4497042f36ce1e4c182a3",
      "transactionIndex": "0x4c",
      "blockHash": "0x8ff13ac3adb05467b35b617d0a10e85352137249483700a1da7525bf78d2e81d",
      "blockNumber": "0x9bbc14",
      "gasUsed": "0xc926",
      "effectiveGasPrice": "0x3c8cb51a",
      "from": "0x5eee431889af5f6e7b05cb6452e87c519db14ce5",
      "to": "0xe03a1074c86cfedd5c142c4f04f1a1536e203543",
      "contractAddress": null
    }
  ],
  "libraries": [],
  "pending": [],
  "returns": {},
  "timestamp": 1770414817530,
  "chain": 11155111,
  "commit": "67314b6"
}